:020000040001F9
:10600000A0370020A1610100BB610100BD6101005A
:106010000000000000000000000000000000000080
:10602000000000000000000000000000BF6101004F
:106030000000000000000000C1610100C361010018
:10604000C5610100C5610100C5610100C5610100B4
:10605000C56101000000000001920100C56101005E
:10606000C5610100C5610100C5610100C561010094
:10607000C5610100C5610100C5610100C561010084
:10608000C5610100B3860100C5610100C561010061
:10609000D5860100C5610100538E0100C561010074
:1060A000C5610100C56101000000000000000000A2
:1060B00000000000000000000000000000000000E0
:1060C00000F002F800F031F80CA030C808382418AD
:1060D0002D18A246671EAB4654465D46AC4201D120
:1060E00000F023F87E460F3E0FCCB6460126334221
:1060F00000D0FB1AA246AB46334318474C38000089
:106100005C380000103A02D378C878C1FAD8520738
:1061100001D330C830C101D504680C6070471FB589
:10612000C046C0461FBD10B510BD03F0C5FB1146EB
:10613000FFF7F5FF00F08EFB03F0DDFB03B4FFF784
:10614000F2FF03BC03F0E2FB401E00BF00BF00BF34
:1061500000BF00BF00BF00BF00BF00BF00BF00BF47
:1061600000BFF1D17047000070B505460C461646D9
:1061700002E00FCC0FC5103E102EFAD2082E02D32B
:1061800003CC03C5083E042E07D301CC01C5361F3E
:1061900003E021782970641C6D1C761EF9D270BD55
:1061A00003210C4802680A4302600B4802680A4354
:1061B00002600A4880470A480047FEE7FEE7FEE71C
:1061C000FEE7FEE7FEE7000006480749074A084BDE
:1061D000704700002405004054050040996201000A
:1061E000C1600100A0270020A0370020A02F0020C0
:1061F000A02F002032483349086070473248008C95
:10620000C0B2012812D13048808C0007000F00284E
:106210000CD12D48806AF0210840402806D12A4838
:10622000C06A0840002801D1012070470020FCE727
:106230002548008CC0B201282CD12348808C00074F
:10624000000F002826D12048806AF021084000284D
:1062500006D11D48C06A0840002801D101207047BE
:106260001948806AF0210840102806D11648C06AF3
:106270000840002801D10120F1E71348806AF0218D
:106280000840302806D11048C06A0840002801D1D3
:106290000120E4E70020E2E710B5FFF7C9FF00287E
:1062A00005D00A480A494860C8130A498861FFF7BF
:1062B000A5FF002802D001200749886010BD00001A
:1062C0000024F40000200020C00F00F0DFFF07C012
:1062D00000050040006C00400006004004460D46EA
:1062E000164632462946204603F080F900BFBFF328
:1062F0004F8FFE48FE49C860BFF34F8F00BF00BFFD
:10630000FEE704460D462A462146FA48FFF7E6FF17
:1063100010B5122000F0BEFA132000F0BBFA10BD39
:1063200038B500BFF448F54B05220221009000204B
:1063300002F0D4F9044600BF2546002D05D000BF69
:10634000EFA2B8212846FFF7C9FF00BF00BF38BD44
:106350003EB500BF6846007801090901491C00915B
:1063600068460078F02188431030009000BF142266
:10637000E6A168467CDF044600BF2546002D05D017
:1063800000BFDFA2D3212846FFF7A8FF00BF0020EF
:1063900078DF044600BF2546002D05D000BFD8A2F7
:1063A000D7212846FFF79AFF00BF002001900290F6
:1063B000FF219131684681804900C180002101811F
:1063C000FF219131418101A87ADF044600BF2546B3
:1063D000002D05D000BFCAA2E2212846FFF77EFFAC
:1063E00000BF3EBD30B595B005210591CD4B0FCB1B
:1063F00001AC0FC43C2106A803F075F902200690F9
:10640000012168464177018405A90991042181860B
:1064100001A90E91002106A801F0E5FB044600BF8A
:106420002546002D06D000BFB5A2FF210B3128461E
:10643000FFF754FF00BF15B030BD70471E20BA49AA
:1064400008800846807840084000401C8870084654
:10645000807802218843B4498870084680781C21DE
:1064600088430C30B04988700846807820218843E2
:10647000AD4988700720C87010200871704770B54A
:1064800005462868002810D13B21A848008876DFFF
:10649000044600BF2646002E06D000BF98A2FF216A
:1064A00036313046FFF71AFF00BF70BD044600BF0B
:1064B00093A2FF2141312046FFF710FF30B587B08E
:1064C0001C21684603F00FF9002000900520C0034E
:1064D00001900F20000402900321684601730021FF
:1064E000C18101749248059092480690684602F076
:1064F000DAFA044600BF2546002D06D000BF80A270
:10650000FF2158312846FFF7E9FE00BF07B030BD34
:10651000704730B585B01421684603F0E4F80021D7
:106520006846017000200190684601724021018296
:10653000B421418273DF044600BF2546002D06D0FA
:1065400000BF6FA2FF2179312846FFF7C7FE00BFC9
:10655000122000F0A8F905B030BDF8B5054628882E
:1065600014284ED006DC10280BD0112813D0132885
:1065700072D11AE017283ED019286FD05228F7D1CF
:1065800026E0132000F08FF9122000F091F9A8887E
:106590006649088087E0132000F08AF90020C04394
:1065A00062490880FFF7B5FF7DE05F4A00215F4840
:1065B00000887FDF044600BF2746002F06D000BFBB
:1065C0004FA2FF21AC313846FFF788FE00BF6AE0DA
:1065D0000022114655480088A9DF044600BF27461F
:1065E000002F06D000BF46A2FF21B1313846FFF789
:1065F00075FE00BF57E03222A91D4F4803F014F882
:1066000051E04D4EB61D3188E889814211D10022FA
:1066100031464648008881DF044600BF2746002FE8
:1066200006D000BF36A2FF21BD313846FFF756FE27
:1066300011E0002211463D48008881DF044600BF7A
:106640002746002F06D000BF2DA2FF21C3313846B8
:10665000FFF744FE00BF26E024E0FFE7A87900280A
:106660001FD1122000F024F9102003210091009A7C
:1066700012048B001A4305231B0707273F02DB196F
:106680008700DA5100BF34DF044600BF2746002FE1
:1066900006D000BF1AA2FF21D3313846FFF71EFEF5
:1066A00000BF00E000BF00BFF8BD10B504462046A3
:1066B000FFF753FF204602F0CAFA10BD10B504469A
:1066C000204600F024FC10BDF8B500BF0023502286
:1066D0001A49082002F075FB054600BF2E46002E21
:1066E00032D000BF06A2164930462BE00400FA055E
:1066F00000ED00E0EFBEADDEBB680100C820002069
:106700002E2E5C6D61696E2E630000004261636B2A
:1067100067726F756E64205265636F7264696E672D
:106720000000000038990100042000200A20002009
:106730007F640100AD640100E022002014230020EA
:1067400005020000FFF7CAFD00BF00BF0020009057
:106750000090684660DF044600BF2546002D06D045
:1067600000BF7A4A832189002846FFF7B7FD00BFA2
:10677000774802F05CFB044600BF2546002D06D09A
:1067800000BF724A212109012846FFF7A7FD00BF7B
:10679000704802F055FB044600BF2546002D06D088
:1067A00000BF6A4A852189002846FFF797FD00BF90
:1067B000F8BD70B500BF684A0A21082001F05CFAF4
:1067C000044600BF2546002D06D000BF5F4A872142
:1067D00089002846FFF782FD00BF00BF70BD70B57D
:1067E00000BF5E49012002F08BFD044600BF254634
:1067F000002D05D000BF554A59492846FFF76EFDC8
:1068000000BF00BF70BD70B500BF564B564A012196
:10681000564802F0EFFB044600BF2546002D06D087
:1068200000BF4A4A4E4911312846FFF757FD00BFC5
:1068300000BF70BD70B540DF044600BF2546002D87
:1068400006D000BF414A46491E312846FFF746FDA3
:1068500000BF70BDFFF75CFDFFF762FDFFF7BFFFF4
:10686000FFF7D1FFFFF730FFFFF7A3FFFFF770FD42
:10687000FFF7B8FDFFF7E1FDFFF720FEFFF7DEFDB4
:10688000FFF746FEFFF745FE00BF01F0B7FAFFF73E
:10689000D1FFFAE703210522120707231B02D218B2
:1068A0008300D150704701218140314A9160704787
:1068B000012181402E4AD16070477CB504460D46C7
:1068C000009401952B4A0821684601F0F6F97CBD39
:1068D0007CB504460D46164600946846057146711F
:1068E000254A082101F0E9F97CBDF8B504460D46BA
:1068F000264600BF082D01D1012000E000200746F8
:10690000002F05D100BF1DA2FF211B31FFF7E6FCC0
:1069100000BF316870688847F8BDF8B505460E4677
:106920002C4600BF082E01D1012000E000200746C0
:10693000002F04D100BF1DA2A821FFF7CFFC00BF8C
:106940006179207922689047F8BD00000067010056
:10695000AB660100BD660100642300201424002002
:106960003D020000D1680100660600000C200020F6
:1069700000050050EB6801001B6901002E2E5C2E03
:106980002E5C2E2E5C2E2E5C2E2E5C496E636C755A
:1069900064655C6170705F636F6D6D6F6E5C61707C
:1069A000705F74696D65722E680000002E2E5C2E7B
:1069B0002E5C2E2E5C2E2E5C2E2E5C496E636C752A
:1069C00064655C6170705F636F6D6D6F6E5C61704C
:1069D000705F627574746F6E2E680000002314215E
:1069E0004143FC4A53541421414389184B800223EC
:1069F0001421414389188B600023142141438918D5
:106A0000CB601421414389180B611421414389183B
:106A10008B80704710B50020EF490880EF4908606F
:106A2000EC49091F087048708870002403E0204674
:106A3000FFF7D4FF641C1E2CF9D310BDFFB583B043
:106A400004460F4615460326E448006800280BD18B
:106A5000002D06D10698002803D10220DF490860E6
:106A600002E00120DD490860DC480068030002F014
:106A700054FF07FD05314E84BAD7FD00D848406960
:106A8000401C002808D001221207126991B2D44A92
:106A9000506902F061FE02E0012000074069401EDB
:106AA00001210907096989B24843029001200007C2
:106AB00000690004820C01200007006980B278435D
:106AC0000146029821DF0646002E02D10220C3496A
:106AD0000860D0E0384620DF0646002E16D1002D93
:106AE00011D1069800280AD12078042803D1072064
:106AF000BA4908600AE00520B849086006E00420A9
:106B0000B649086002E00320B4490860B3E0B44825
:106B10004069401C002808D001221207126991B276
:106B2000AF4A506902F018FE02E0012000074069F8
:106B3000401E01210907096989B24843012109075B
:106B40000290096989B2794308462A46029921DFF1
:106B50000646002E10D1069800280AD12078042875
:106B600003D106209D49086006E005209B49086086
:106B700002E00420994908607DE099484069401C82
:106B8000002808D001221207126991B2944A506974
:106B900002F0E2FD02E0012000074069401E0121F1
:106BA0000907096989B24843A9004018618840185B
:106BB000012109070290096989B27943AA0089185D
:106BC00062888818069A029921DF0646002E09D1AC
:106BD0002078042803D106208049086002E00520BF
:106BE0007E49086047E001200007006980B27843D1
:106BF000AB00C0180290608882082169029821DFEA
:106C00000646002E0BD1002D06D10698002803D190
:106C100007207249086002E00620704908602AE0F7
:106C20006F484069401C002808D0012212071269F1
:106C300091B26B4A506902F08FFD02E0012000071B
:106C40004069401E01210907096989B24843019042
:106C500001200007006981B2019802F07DFD0290D9
:106C600020DF0646002E04D1072000E002E05B4949
:106C7000086000E000BF00BF304607B0F0BDF0B5CF
:106C800085B00F275348001F00781421484351490D
:106C90004418E5682078022804D0042823D0052869
:106CA0006FD16FE0206903904B48008886026088AE
:106CB000801B0490039880190390A08880194519BF
:106CC000012189020498884206D204988208284645
:106CD000039921DF074605E0FF2201322846039988
:106CE00021DF074681E0A06800013E494018008985
:106CF0000490A0680001401840890390A06800013A
:106D00004018406802900298A84205D1039904985F
:106D100048436188884202D0A06803280DD1012031
:106D20000007006981B2284602F016FD2A49098849
:106D30004618304620DF074622E0012000070069A0
:106D400081B2284602F008FD0646012000070069CE
:106D500080B27043281A8008019001200007006962
:106D600080B2711C484361884919401A800800901C
:106D700031462046009B019AFFF760FE074600BFA0
:106D800033E031E001200007006981B2284602F0BB
:106D9000E3FC0646A088411901200007006980B283
:106DA0007043081A80080490A0884019618842182E
:106DB00001200007006980B2711C4843801A8008D6
:106DC000039031462046039B049AFFF737FE07469F
:106DD0000BE000002C240020202000202420002094
:106DE000001000108426002000BF00BF002F02D139
:106DF0000120FE498870384605B0F0BDFFB581B06E
:106E0000064617460024F94840781E2837D0F74830
:106E10000078F64949784018C4B21E2C02DB20469F
:106E20001E38C4B214206043F049091D0E541420CA
:106E3000604340180761142060434118029805C858
:106E4000CA60886014206043E84A121D80180499C3
:106E500041801420604380180A9981800025101F0A
:106E60008078002805D1FFF70AFF0546112D00D1D3
:106E70000025DE484078401CDC49487000E00425CD
:106E8000284605B0F0BDF8B50446D848007814216E
:106E90004843D649091D0E5C081F00781421484359
:106EA000D249091D401880680001D1490D58CF48CA
:106EB000007814214843CD49091D40184088091F16
:106EC0000090097814225143C84A121D89180B6991
:106ED000111F097814225143C44A121D891808460B
:106EE000083022463146A847F8BD10B50024BF48F7
:106EF0004078002809DDFFF7C2FE0446002C04D0CC
:106F0000112C02D02046FFF7BEFF204610BDFEB573
:106F100005460026B548807801287DD10020B34978
:106F20008870B4480068082811D1022D03D10020D0
:106F3000B049086002E00020AF490870FFF7D5FFB4
:106F40000646002E02D03046FFF79DFFFEBD022D03
:106F500002D0032D79D174E0A4480078142148436D
:106F6000A249091D4418A5480088401CA34908806F
:106F70002078022807D1084600888002618888426C
:106F800001DB012000E0002007462078052805D11C
:106F900098480068072801D1012000E000200290F5
:106FA0002078042805D193480068072801D10120E2
:106FB00000E000200190207804280BD18F48008841
:106FC00080026188884205DB8A480068002801D178
:106FD000012000E0002000900298002807D10198CD
:106FE000002804D10098002801D1002F1FD00020D4
:106FF000804908603046FFF746FF7C490878FFF774
:10700000EDFC00207D49088078484078401E774993
:1070100048700846007800E01AE0401C08700846F6
:1070200000781E2803DB084600781E380870FFF73A
:107030005CFF0646002E02D03046FFF724FF05E035
:1070400003E00D20FFF71FFF00E000BF00BF00BFFF
:1070500000BF7BE770B5FFF7DDFC002068490880C2
:1070600068484069401C002808D0012212071269B4
:1070700091B2644A506902F06FFB02E00120000700
:107080004069C01E01210907096989B248435E4968
:10709000086000205949088000BF0DE0002102016E
:1070A000534B99500201D21811810201D2189181DB
:1070B0000201D2185181401C0228EFD308204D490B
:1070C000086050484069401C002808D0012212077F
:1070D000126991B24B4A506902F03EFB02E0012076
:1070E00000074069401E01210907096989B2484328
:1070F000064601200007006981B2304602F02CFBF1
:10710000054620DF0446002C04D101203749887051
:1071100039490870204670BDF8B504460D4600BFD9
:1071200035480078002801D10820F8BD00BF002CA8
:1071300001D10E20F9E7002D01D10E20F5E72068DE
:10714000002801D10E20F0E7A08801210907096974
:1071500089B2884202DCA088102801DA0720E4E71F
:10716000E08800281ED027484069401C002808D02D
:1071700001221207126991B2224A506902F0ECFA18
:1071800002E0012000074069401E0121090709694A
:1071900089B24843E188A28851431B4A1268891882
:1071A000884201D20720C0E720798007800F00289D
:1071B00001D00720B9E712480088022801D1042035
:1071C000B3E70F48008828600F48006868600C49E2
:1071D00009880901064A89186868486008490988C9
:1071E000090120685050A08805490FE0282400209C
:1071F000842600202420002022200020202000209F
:1072000018200020001000101C200020098809010F
:1072100089180881E088FE49098809018918488190
:107220000027A688E1884E4300BF781C87B2012062
:107230000007006980B2B04205D201200007006952
:1072400080B2361A00E0002601200007006980B2F3
:10725000F04909684018EF490860012000070069FB
:1072600080B2B042E1D9EA4800880001EA494018FA
:107270008781E7480088401CE5490880002054E7E2
:107280003CB5034600BFE5480078002801D108203E
:107290003CBD00BF002B01D10E20F9E7002A01D12F
:1072A0000E20F5E71868022805D218680001DA4CAC
:1072B0002058002801D10720EAE75C68186801948B
:1072C0000090019C18680001D34D40190089484383
:1072D00020180190009800012C4600194089009C5C
:1072E0002401641924896043009C240164196468A2
:1072F0000019019CA04201D80720C9E7019C009811
:10730000546010600020C3E7F8B504460E461546E9
:107310001F4600BFC1480078002801D10820F8BDF1
:1073200000BF002E01D10E20F9E7002C01D10E2064
:10733000F5E72068022805D220680001B649085800
:10734000002801D10720EAE720680001B24940186F
:10735000408921680901B04A891809894843216890
:1073600009018918496840186168884201D80720D6
:10737000D5E7002D06D020680001A74940180089F4
:10738000A84201DA0720CAE7E81921680901A24AE0
:1073900089180989884201DD0720C0E7304600F0DE
:1073A0005CF9002804D0384600F057F9002801D1D4
:1073B0001020B4E7606800F050F9002801D11020D7
:1073C000ADE72B463246214602200097FFF716FD17
:1073D000A5E7F8B504460E4615461F4600BF8F4880
:1073E0000078002801D10820F8BD00BF002E01D18F
:1073F0000E20F9E7002C01D10E20F5E720680228C5
:1074000005D22068000184490858002801D10720CE
:10741000EAE7206800018049401840892168090195
:107420007D4A8918098948432168090189184968F2
:1074300040186168884201D80720D5E7002D06D0A2
:1074400020680001744940180089A84201DA072029
:10745000CAE7E819216809016F4A89180989884231
:1074600001DD0720C0E7304600F0F7F8002804D01F
:10747000384600F0F2F8002801D11020B4E7606827
:1074800000F0EBF8002801D11020ADE72B46324682
:10749000214605200097FFF7B1FCA5E7FFB581B0B5
:1074A0000C4615461E4600BF5C480078002802D1F5
:1074B000082005B0F0BD00BF002C01D10E20F8E778
:1074C0000198002801D10E20F3E72068022805D298
:1074D0002068000150490858002801D10720E8E73A
:1074E000206800014C4940184089216809014A4A36
:1074F0008918098948432168090189184968401891
:107500006168884201D80720D3E7002D06D02068A3
:107510000001414940180089A84201DA0720C8E764
:10752000A819216809013C4A89180989884201DDA6
:107530000720BEE7019800F090F8002804D03046FC
:1075400000F08BF8002801D11020B2E7606800F04D
:1075500084F8002801D11020ABE7606881192A4621
:10756000019802F061F80095206800012A490F583F
:10757000002203212046019BB847002099E7F8B577
:1075800004460D4600BF25480078002801D1082098
:10759000F8BD00BF002C01D10E20F9E720680228B9
:1075A00005D2206800011C490858002801D1072095
:1075B000EEE7206800011849401840892168090158
:1075C000154A8918098948432168090189184968B9
:1075D00040186168884201D80720D9E7606800F048
:1075E0003CF8002801D11020D2E723681B010A4F84
:1075F000DB1962685B68D01A226812013B46D21818
:10760000118902F0A9F800290AD00720C0E700007C
:10761000182000201C20002084260020222000208A
:1076200000202B460246214600900420FFF7E6FB8F
:1076300006463046ACE7014600BF0C4800780028FB
:1076400001D10820704700BF002901D10E20F9E7C1
:107650000748407808600020F4E701468807800F5B
:10766000002801D1012070470020FCE722200020E3
:1076700028240020F7B584B004460F460698067803
:10768000B01C1F2803DC2079801C1F2802DD0C2081
:1076900007B0F0BD1F20801B801E85B20295B11C73
:1076A000781802A97DDF03900398002801D0039881
:1076B000EEE72068022808D168460089A84204DC69
:1076C00009200190684605890BE008200190207987
:1076D000002804D02079A84201DC257901E0684621
:1076E0000589681CC2B23046711CCEB23A5430468D
:1076F000721CD6B20199395406980178A81C081852
:10770000C1B2069801700020C2E7F8B505460C46E4
:107710002078001D1F2801DD0C20F8BD684679DFA8
:107720000646002E01D03046F7E703212278501C90
:107730002070A95419212278501C2070A954207857
:1077400041196846008800F08BFA217840182070B3
:107750000020E2E7F8B505460F4616461C46686865
:10776000002801D10720F8BD2078801C2988401806
:107770001F2801DD0C20F6E72878401CC1B22278D2
:10778000501C2070B1542178481C207077542A88EE
:1077900023789819696801F047FF20782978401804
:1077A00020700020DFE730B503461078C01C1F288A
:1077B00001DD0C2030BD02241578681C10704C557A
:1077C0000A241578681C10704C551578681C1070C8
:1077D0004B550020EEE7FFB587B006461D46109CCE
:1077E0000020069020780590002747E0B9007068D7
:1077F00041180A886846028149884181002203A90C
:1078000002A865DF04900498002802D004980BB009
:10781000F0BD6846017B099881422ED10698002868
:1078200001D0002000E00220019020786946097B09
:107830004118019808181F2801DD0C20E7E7069879
:10784000002809D12078401C20702278511C08980B
:107850002170A854012006902078421903A902A89B
:1078600065DF04900498002801D00498CFE72078C1
:107870006946097B4018207000BF7F1C3088B842E1
:10788000B4DC0698002806D021780598401C081A18
:10789000C1B2059829540020B9E7FFB581B0074669
:1078A00015460A9E009602223846049B0299FFF76D
:1078B00092FF0446002C02D0204605B0F0BD009691
:1078C000102229463846049BFFF785FF0446002C0A
:1078D00001D02046F1E70020EFE70146088806289E
:1078E00008DB08881922D201904205DD0888E14AA8
:1078F000904201D0072070474888062808DB488856
:107900001922D201904205DD4888DA4A904201D01E
:107910000720F0E70888D74A904208D0488890426C
:1079200005D008884A88904201DD0720E3E700205F
:10793000E1E7F8B506460D4614462078801D1F285D
:1079400001D90C20F8BD3046FFF7C7FF0746002FCE
:1079500001D03846F6E705212278501C2070A95442
:1079600012212278501C2070A95422785119308895
:1079700000F076F92178401820702278511970882B
:1079800000F06EF92178401820700020DAE7F8B591
:1079900005460E4614462879801CC7B22078801C04
:1079A000C0191F2801DD0C20F8BD781CC1B2227857
:1079B000501C2070B154FF212278501C2070B1540B
:1079C00022789119288800F04BF92178401820700E
:1079D000A88800280EDDA868002801D10720E3E769
:1079E000AA8823789819A96801F01EFE20782979C1
:1079F000401820700020D7E7FEB507460E46144613
:107A0000786B002801D10720FEBD0020019032E0F4
:107A1000796B0C22019850430D182879801CC0B254
:107A200000900098401CC1B22278501C2070B154C4
:107A300016212278501C2070B15422789119288880
:107A400000F00EF9217840182070A88800280EDD7B
:107A5000A868002801D10720D6E7AA8823789819BA
:107A6000A96801F0E1FD207829794018207001987B
:107A7000401CC0B201903820C15D01988142C7DC32
:107A80000020C1E7F8B504460F4616460025002041
:107A900030702068002809D0324639462046FFF76A
:107AA000E9FD0546002D01D02846F8BD6079002883
:107AB00008D031463846FFF728FE0546002D01D094
:107AC0002846F2E7208900280BDD33463A4601219B
:107AD00020460830FFF73EFE0546002D01D028461F
:107AE000E3E7206900280BD00020216908563246C0
:107AF0003946FFF758FE0546002D01D02846D4E749
:107B0000A08A00280CDD3B460622022120461430C4
:107B10000096FFF7C2FE0546002D01D02846C4E7B7
:107B2000A08B00280CDD3B460722032120461C3099
:107B30000096FFF7B2FE0546002D01D02846B4E7B7
:107B4000A08C00280CDD3B46152214212046243051
:107B50000096FFF7A2FE0546002D01D02846A4E7B7
:107B6000E06A002809D032463946E06AFFF7E1FEB4
:107B70000546002D01D0284697E7206B002809D044
:107B800032463946206BFFF702FF0546002D01D033
:107B900028468AE73820005D002809DD324639464C
:107BA0002046FFF729FF0546002D01D028467CE737
:107BB00028467AE701460889002808D0C8680028C6
:107BC00005D0C868007804221040002801D10720A1
:107BD00070470020FCE701460889002801DD0720E6
:107BE00070470020FCE7F3B593B00D4600211291D9
:107BF00011911398002814D01398FFF7DBFF044667
:107C0000002C02D0204615B0F0BD12AA09A9139885
:107C1000FFF738FF0446002C01D02046F3E709AEF9
:107C200000E00026002D13D02846FFF7D4FF0446BD
:107C3000002C01D02046E6E711AA01A92846FFF74B
:107C400021FF0446002C01D02046DCE701AF00E014
:107C5000002710A803793A46017A304672DFD2E74E
:107C600002460A70FF2000021040001248700220F5
:107C700070470000FFFF000030B50346481CC004F9
:107C8000040C10468507AD0F002D01D1012500E041
:107C90000025002D01D1072030BD7A48026010195F
:107CA000794D28600020794D2870794D28707948E9
:107CB0000380794801800020EEE7F7B584B00C46D8
:107CC0007448008884426BDC744D0020039000F0FF
:107CD000A4F802900298012814D003A82EDF0746CA
:107CE000022F01D172B60CE000BF0197019F002F57
:107CF00006D000BF6AA259210198FEF7EFFA00BF33
:107D000000BF00BF6148007800F0B1F86049097811
:107D1000884206D05D480578007800F0A8F85B49F5
:107D200008700298012814D062B66846007B2FDFE5
:107D30000746022F0CD000BF0197019F002F06D0ED
:107D400000BF57A261210198FEF7C8FA00BF00BF2B
:107D500000BF5248854221D0E9004A4A069812687D
:107D600050500498002811D0002C0FDD4949098893
:107D70006943454A126888182246049901F054FC68
:107D8000E800404909684018848005E00020E900C7
:107D90003C4A126889188880002600E0042600E02A
:107DA0000926304607B0F0BDF8B505460E46174621
:107DB00005200090354800783549097888421BD065
:107DC00033480478007800F052F83149087031489F
:107DD000008860432C49096840182860E000294960
:107DE0000968401880883080E000264909680858F2
:107DF00038600020009000BF0098F8BD0EB504E088
:107E000068468188009A029890476A4601A902A8AC
:107E1000FFF7CAFF0028F3D00EBD10B52D4840680B
:107E2000C105C90D002920D00A46103A1046002885
:107E30000DDA284B1C330407240F083CA408A400C7
:107E40001B598407E40EE3401B069B0F0BE0224BFB
:107E5000032424021B198408A4001B598407E40E80
:107E6000E3401B069B0FD8B210BD0420FCE701467F
:107E700009480088814201DA481C00E00020C0B2B5
:107E800070470000282000202C20002031200020F6
:107E9000302000203220002034200020FFFF00008E
:107EA0002E2E5C2E2E5C2E2E5C2E2E5C2E2E5C53E7
:107EB0006F757263655C6170705F636F6D6D6F6E1F
:107EC0005C6170705F7363686564756C65722E6366
:107ED0000000000000ED00E000E100E010B5002827
:107EE00019DAFB4A03071B0F083B9B089B00D2587B
:107EF0008307DC0EFF23A3409A438B071B0E8407E6
:107F0000E40EA3401A43F24B0407240F083CA408D4
:107F1000A4001A5118E0EF4A03231B02D218830869
:107F20009B00D2588307DC0EFF23A3409A438B07A4
:107F30001B0E8407E40EA3401A43E64B03242402DD
:107F40001B198408A4001A5110BD10B50446E2485C
:107F5000846003211120FFF7C1FF10BD10B501207F
:107F60000004DE494860DD4940394860112000F0D6
:107F7000F5FC112000F0E4FC0120D94908602F2015
:107F8000FEF7E2F80120D749087010BD10B51120A6
:107F900001218140CF4A8032116000BF01200004DE
:107FA000CE498860CD49403988600120CC4948607D
:107FB0002F20FEF7C9F80120C94988600020CA496E
:107FC00008602F20FEF7C0F80020C649087010BDD9
:107FD000F0B5024628205043C44B1B68C118C44862
:107FE0000068401C002802D1C148026059E0C04826
:107FF0008B68006828246043BC4C246800198068A2
:10800000834217D8BA48006828235843B74B1B68E7
:10801000C01880688B68C31AB5480068282460437C
:10802000B24C246800198360B14800684862B048C7
:10803000026036E08B68AE4D2C6828680DE028257C
:108040004543AA4E3668AD19AD685B1B044628252A
:108050004543A64E3668AD19686A451C002D07D009
:1080600028254543A14E3668AD19AD689D42E6D33B
:10807000451C002D0CD0282545439C4E3668AD1973
:10808000AD68EE1A28254543984F3F68ED19AE605C
:108090008B60486228256543944E3668AD196A6244
:1080A00000BFF0BDF8B50646914805682C4609E0CA
:1080B000B44200D109E02546282060438B49096875
:1080C0004018446A601C0028F2D100BF601C0028E0
:1080D00000D1F8BDA54210D1854800682821484349
:1080E000824909684018406A81490860084600686A
:1080F000401C002801D1FFF749FF282060437B493D
:108100000968401887682820604378490968401842
:10811000416A28206843754A126880184162282005
:108120006843724909684018446A601C00280CD0F2
:10813000282060436D49096840188068C1192820CB
:1081400060436A4A12688018816000BFC1E710B5B9
:10815000112000F0FCFB10BD10B5142000F0F7FB5F
:1081600010BD70B5044663480068002813D0614A0A
:10817000216AE06912689047054600BF2E46002E2E
:1081800007D000BF5CA2FF2164313046FEF7A6F89D
:1081900000BF00BF02E0E169206A884770BDF8B502
:1081A00053480068401C00283AD0002700F008FC23
:1081B00004464D480168204600F005FC06464C4840
:1081C000056811E028206843484909684418A068F8
:1081D000B04200D90BE0A068361AA068C719656ADA
:1081E0002046FFF7BEFF00BF681C0028EAD100BF91
:1081F0004D4800784D490978884209D14B480078AC
:10820000401CC0B249490870022801D10020087002
:1082100046480078800046490F50FFF79DFF00BF99
:10822000F8BD014640480078404A127890421DD07F
:108230003D480078401C3C4A1070104600780228E7
:1082400001D100201070384800788000384A10585A
:108250000860254A086812688018234A1060104692
:1082600000680002000A10600120704700200860CA
:1082700000BFFAE7FEB51E48006801902D4800785F
:10828000009076E00098C0002B49096844182578D2
:108290006BE01820684361680F18681CC5B2A078AD
:1082A000A84200D100253868022802D0032859D1FD
:1082B00044E02821786848430C4909684618307E14
:1082C000002804D07868FFF7EDFE002030764AE001
:1082D0001CED00E000E100E000150140401301400A
:1082E00000100140602000204C2000203C20002095
:1082F000482000205C2000202E2E5C2E2E5C2E2E8E
:108300005C2E2E5C2E2E5C536F757263655C617003
:10831000705F636F6D6D6F6E5C6170705F74696DBF
:1083200065722E63000000005820002059200020B4
:108330005020002040200020442000200CE0F8497C
:10834000096828225143F74A1268881800210176EB
:10835000F34A416A116000BFF1480068401C0028E0
:10836000EDD100E000BF00BF00BF6078A84290D10F
:1083700000BF0098411EC9B20091002882D1E84890
:1083800001680198814201D00120FEBD0020FCE778
:10839000F0B50346002426E0E14E366828277E43E8
:1083A000E04F3F68F01986689E4203D98668F61A46
:1083B00086601DE086689B1B8668341900268660EF
:1083C0000676D74E3568D64F466A3E604669002E1F
:1083D00008D00E193602360AC6604669066116686C
:1083E0004662156000BFCE480068401C0028D3D10B
:1083F00000BFF0BDFEB50746C94800680290CA48F4
:10840000007801906BE00198C000C84909684518E0
:108410005DE0781C002807D03E4628207043C14903
:1084200009684418676A23E02978182359436A6861
:1084300050182978491C29702978AA78914201D1CD
:1084400000212970466828217143B64A12688C18A9
:108450000168012902D1217E002900D037E081681E
:10846000E160C1682161016961614169216200BF08
:10847000AF49E0680968401A0002000AAD49884225
:1084800008D2AB49E068096800F09DFA21694018FC
:10849000A06011E0A648E168006800F094FA00903E
:1084A00021690098814204D921690098081AA060C6
:1084B00001E00020A06000BF0020E06020610120FA
:1084C0002076801E60623046FFF782FD00BF781C78
:1084D00000289ED12878697888429AD100BF0198F7
:1084E000411EC9B2019100288DD18D4801680298C2
:1084F000814201D00120FEBD0020FCE7FEB5884886
:108500000068401C002834D0854800682821484372
:10851000844909684018856800F052FA019084483F
:1085200004682146019800F04EFAC61C8248007883
:10853000002801D1FFF712FDAE4201D2284600E02B
:10854000304604192402240A20467C49086000BFF2
:1085500000F036FA00900199009800F034FAC71C38
:108560002046019900F02FFA874201D9FFF7EFFD6D
:1085700001E0FFF70BFDFEBDFEB50020C0430190FA
:108580006B480468664807686846FFF74AFE054678
:10859000FFF770FE0646002D05D001AA214600987F
:1085A000FFF7F6FE01260198FFF724FF002800D010
:1085B0000126002E02D03846FFF7A0FFFEBD417015
:1085C000704770B502460B465078411C907888423F
:1085D00000D100211078884201D1002070BD1960BF
:1085E00050781826704355682C182046F6E7FFB5DA
:1085F00081B005460E461746E9004C4A12688818B5
:108600006946FFF7DEFF0446002C02D1042005B0C6
:10861000F0BD01202060666000F0D2F9A060E76044
:10862000049820610A986061E900404A126888183D
:108630000099FFF7C4FFFFF78FFD0020E7E7F8B5CB
:1086400004460E46E100394A126888186946FFF769
:10865000B8FF0546002D01D10420F8BD0220286096
:108660006E60E100314A126888180099FFF7A7FF91
:10867000FFF772FD0020F0E738B50446E1002B4A11
:10868000126888186946FFF79CFF0546002D01D146
:10869000042038BD03202860001F6860E100234AE1
:1086A000126888180099FFF78AFFFFF755FD002030
:1086B000EFE710B500202249086000212048416002
:1086C0008160C16000201E49403908604860FFF7A2
:1086D00066FD10BD10B5FFF74FFF10BDFFB581B0AF
:1086E0000E4617461C4620468107890F002901D1F6
:1086F000012100E00021002902D1072005B0F0BDD2
:10870000002C01D10720F9E7FFF740FC0D490A983A
:1087100008600D48067003480460002523E000004F
:10872000482000203C200020402000204420002041
:108730004C200020FFFF7F006020002040150140FA
:10874000401101405C20002038200020002128201A
:1087500068439F4A12681150282068439C4A126857
:10876000801801766D1CB542F0DB28207043041997
:1087700003209849087098480460183400250CE0DC
:10878000E900954A126888180021017041708770CD
:108790004460182179430C196D1C032DF0DB002077
:1087A000C0438E49086000208D4908708D490870CB
:1087B000142000F0D3F803211420FFF78FFB1420BE
:1087C00000F0BEF80198FFF7C0FB00F0F9F8864909
:1087D0000860002092E770B503460C467C480068AC
:1087E000002801D1082070BD002A01D10720FAE736
:1087F000002B01D10720F6E700211CE02820484388
:10880000734D2D682858002814D10125282048438D
:108810006F4E36683550282048436D4D2D684019FD
:108820004460282048436A4D2D684019C261196090
:108830000020D8E7491C6D4800788142DEDB042027
:10884000D1E710B500F092F8012802D0032804D136
:1088500001E0002403E0012401E0022400BF00BF86
:10886000204610BDFEB504460D4616465848006821
:10887000002801D10820FEBD5C480078844201D266
:10888000052D01D20720F6E72820604350490968EA
:108890000858012801D00820EDE7282060434C4902
:1088A000096840184068012801D1284600E00020EE
:1088B0000746FFF7C6FF3B462A4621460096019031
:1088C000FFF795FED7E770B50446414800680028D9
:1088D00001D1082070BD45480078844201D30720AB
:1088E000F8E7282060433A4909680858012801D070
:1088F0000820EFE7FFF7A5FF05462146FFF79FFE9B
:10890000E8E710B532480068002801D1082010BD02
:10891000FFF797FF0446FFF7AFFEF8E710B50446F0
:1089200000F04EF82060002010BD70B505460E46E0
:1089300014463146284600F046F82060002070BDFD
:10894000C206D20E01219140294A11607047C20629
:10895000D20E01219140274A11607047C206D20E03
:1089600001219140234A80321160704710B522489E
:108970004068C105C90D002920D00A46103A1046AA
:1089800000280DDA1C4B1C330407240F083CA408F4
:10899000A4001B598407E40EE3401B069B0F0BE069
:1089A000134B032424021B198408A4001B598407B9
:1089B000E40EE3401B069B0FD8B210BD0420FCE779
:1089C0000E48406870470246501A0002000A70477D
:1089D0003C2000204020002044200020482000208F
:1089E00058200020592000204C2000203820002052
:1089F00000E100E000E200E000ED00E000150140D1
:108A000001464888B74A1288904206DB4888B54A32
:108A10005288904201DC012070470020FCE738B505
:108A20000546B1480088B14988423BD0B04800783B
:108A3000401CAF490870AF48007B097888420FDBC3
:108A4000A849A948008875DF0446002C07D0A9482A
:108A50008069002803D0A74881692046884721E023
:108A60000020A3490870A348007C00280FD03B21B8
:108A70009D48008876DF0446002C07D09D48806919
:108A8000002803D09B4881692046884700BF994849
:108A90004069002806D00020009096484169684649
:108AA000884700BF38BD70B505461C22294691484D
:108AB000FDF75AFB002090490870286800280BD069
:108AC00008228848296800F0AFFD86487ADF04460E
:108AD000002C08D0204670BD82487BDF0446002C65
:108AE00001D02046F7E70020C0437F4908800020DE
:108AF0007F490870814A00218148FFF76CFEEAE750
:108B000010B57F480068FFF7DEFE10BD38B57D4820
:108B1000FFF776FF002829D17748007800280AD08F
:108B200074484069002820D00020009071484169B5
:108B30006846884719E06E480078002802D16D48E1
:108B4000456801E06B488568002229466C4800684A
:108B5000FFF788FE0446002C07D06648806900288D
:108B600003D064488169204688470AE0614840692B
:108B7000002806D0012000905E4841696846884779
:108B800000BF00205C49087038BD10B50446A088BD
:108B900055490880082221460E315A4800F044FD0C
:108BA0000020534908705348C089002801D1FFF7BD
:108BB000ADFF10BD70B505460020C0434A4908808E
:108BC00000204B4908704E480068FFF77CFE0446C1
:108BD000002C07D047488069002803D045488169A8
:108BE0002046884770BD70B50546AC1D20884149B8
:108BF000C989884220D1208B02281DD100BF00BF27
:108C0000A17EE27E120211430846C107C90F002966
:108C100002D0FFF77BFF0FE039480068FFF753FEF3
:108C20000646002E07D033488069002803D031481B
:108C300081693046884700BF70BD10B504460822E0
:108C4000A11D304800F0F0FCFFF760FF10BD10B52B
:108C500004462088102806D0112808D012280ED0EB
:108C6000502810D107E02046FFF78FFF0CE0204688
:108C7000FFF7A0FF08E02046FFF7B5FF04E020461D
:108C8000FFF7DBFF00E000BF00BF10BD38B50446B2
:108C900008222146134800F0C7FC12487ADF054637
:108CA000002D1CD11748FFF7ABFE00280BD1012087
:108CB000114908700B490C48008875DF05460120F2
:108CC0000B4908700BE00B484069002806D00120D2
:108CD0000090084841696846884700BF002528463B
:108CE00038BD0000642000206E200020FFFF00003F
:108CF0006C200020A42600207C2000201F8A010078
:108D0000782000207020002070B506460C461546DD
:108D100029462046FDF7F5FA70BDF8B55A480078A7
:108D2000002800D1F8BD59480068002801D1012071
:108D300000E00020054656480068002801D10120C7
:108D400000E00020064600BF002D14D1684651DF28
:108D50000446052C01D101250CE0002C06D000BFF3
:108D60004CA269212046FDF7B9FA03E04749009873
:108D70000968884700BF002E1AD154480088009027
:108D800069465348006861DF0446052C01D101267D
:108D90000DE0002C06D000BF3EA280212046FDF74A
:108DA0009DFA04E04A48006839490968884700BFCD
:108DB000002D02D0002E00D000E0C5E700BF00BFAC
:108DC000B0E7FFB581B00C4616461F46002C02D115
:108DD000072005B0F0BD20468107890F002901D189
:108DE000012100E00021002901D10720F1E73848E6
:108DF000046036480680374807603749019810DF1D
:108E00000546002D01D02846E3E701201E490870E1
:108E1000162026DFDDE710B511DF0446002C01D057
:108E2000012000E0002018490870204610BD0146CE
:108E3000002901D10E207047154801600020FAE793
:108E40000146002901D10E20704710480160002022
:108E5000FAE770B51F480068002811D01D48006867
:108E60008047044600BF2546002D07D000BF09A259
:108E7000FF2133312846FDF731FA00BF00BF01E082
:108E8000FFF74BFF70BD00008A20002090200020DB
:108E90008C2000202E2E5C2E2E5C2E2E5C2E2E5C26
:108EA0002E2E5C536F757263655C73645F636F6DC8
:108EB0006D6F6E5C736F66746465766963655F6819
:108EC000616E646C65722E630000000088200020D3
:108ED0008420002080200020098D0100F8B5044680
:108EE0000D4692480068002813D0EAB221788F4BD3
:108EF000A0681B689847064600BF3746002F06D07B
:108F000000BF8BA228213846FDF7E8F900BF00BF5B
:108F10000CE0012D04D120780121A268904705E0E2
:108F2000002D03D120780021A2689047F8BDF8B544
:108F3000074669468A48007800F0F3FA0646002E94
:108F400000D0F8BD002535E00C206843854909684C
:108F50004418854800682278012191400840002883
:108F60000FD0A06800280CD06078012804D100211F
:108F70002046FFF7B3FF1BE001212046FFF7AEFFBD
:108F800016E0794840682278012191400840002885
:108F90000ED0A06800280BD06078012804D10121F0
:108FA0002046FFF79BFF03E000212046FFF796FFD6
:108FB000681CC5B26D4800788542C5DB00BFC0E7BC
:108FC00070B504460D466A480068FFF77CFC06460B
:108FD000002E00D070BD64484460056020462843E0
:108FE00002466448016862480068FFF73BFC064699
:108FF00000BFEFE7FFB583B006460C461746052FC6
:1090000002D2072007B0F0BD5648066057480470EA
:1090100058480760454906980860002516E00C216D
:109020006143881902780092416801910199890091
:109030000522120707231B02D318009A92009950A9
:1090400000BF0278012191400D4300BF2046611E00
:10905000CCB20028E3D1484B2A462946404800F0CC
:1090600089F902900298002801D00298CAE7434A81
:1090700000213F48FFF7AFFBC4E710B5394800684F
:10908000002801D1082010BD3548007800F0B7F95C
:10909000F9E710B533480068002801D1082010BD59
:1090A0002F48007800F01CFA0446002C01D020461E
:1090B000F5E72F480068FFF706FCF0E7F8B505462E
:1090C0000C460C2068432749096847182548006862
:1090D000002801D10820F8BD69462148007800F039
:1090E00020FA0646002E01D03046F4E778780028B2
:1090F0000BD10098E840C007C00F002802D0002024
:10910000207010E0012020700DE0787801280AD14D
:109110000098E840C007C00F002802D0012020704E
:1091200001E0002020700020D5E70000A0200020F2
:109130002E2E5C2E2E5C2E2E5C2E2E5C2E2E5C5344
:109140006F757263655C6170705F636F6D6D6F6E7C
:109150005C6170705F627574746F6E2E63000000E6
:10916000A420002094200020AC2000209820002083
:10917000A82000209C200020C18F01002F8F01001B
:10918000F0B502460C46002037E001238340194623
:1091900023460B40002B2FD0D5680D40002D05D164
:1091A00001235B04D5680D43D56004E003231B0451
:1091B000D5688D43D56005252D0707263602AD19E4
:1091C0008600AD5903263604B54305263607072722
:1091D0003F02F6198700F55105252D0707263602AF
:1091E000AD198600AD591D430526360707273F02F6
:1091F000F6198700F55100BF401C2028C5D3F0BDEB
:10920000F0B585B0EF4805690020EF49C863002636
:109210003FE014207043ED49096844180120B04034
:10922000EB4909680840002831D0E068C043684035
:1092300021680840074639462046FFF7A1FFE1486C
:10924000006968400390039800280ED003980543F6
:10925000E068C043684021680840009020460099BB
:10926000FFF78EFF0098074300BFA068A84338406F
:1092700001906068284038400290019902980843A4
:10928000002803D0226901990298904700BF701C02
:10929000C6B2D04800788642BBDB05B0F0BD10B541
:1092A0000146002029E014224A43C84B1B689A5803
:1092B000012383401A40002A1ED0052212070723EB
:1092C0001B02D2188300D25803231B049A430523A0
:1092D0001B07072424021B1984001A5105221207B8
:1092E00007231B02D2188300D25805231B0707242B
:1092F00024021B1984001A51401C2028D3D310BD0E
:1093000070B505460C46002C01D1072070BD2046E3
:109310008107890F002901D1012100E000210029E6
:1093200001D10720F2E7A9480460AB48057000208E
:10933000A8490870A6490860A7480078142250433D
:109340000146A248006800F0CEF90020C043A349BE
:109350008860062001218140A14A116000BF0121DF
:1093600000F0F9F80620012181409E4A116000BFFB
:109370000020CBE7F8B504460D4616461F46934835
:109380000068002801D10820F8BD002F01D1072076
:10939000FAE79048007890490978884201DB042078
:1093A000F2E7284630438B49097814225143874A13
:1093B000126850508748007814214843834909684F
:1093C0004018456083480078142148437F49096864
:1093D000401886607F480078142148437B4909681B
:1093E000401807617B48007820707A480078401C5C
:1093F000784908702078FFF752FF0020C4E7F0B5E5
:10940000024672480068002801D10820F0BD71486A
:109410000078824201DB0720F8E700206A4BD8631E
:10942000684804696A480068002802D158066B4BF6
:10943000586001209040664B1B681843644B1860CD
:10944000002314205043614D2D684019C360002152
:1094500042E001238B401846142353435B4D2D6893
:10946000EB580340002B36D025460540002D02D096
:1094700003231B040EE001235B0414255543534EC4
:109480003668AD19ED680543142656434F4F3F68C3
:10949000F619F56005252D0707263602AD198E0051
:1094A000AD5903263604B5430526360707273F0284
:1094B000F6198F00F55105252D0707263602AD193F
:1094C0008E00AD591D430526360707273F02F619C2
:1094D0008F00F55100BF491C2029BAD3002095E721
:1094E00010B5044639480068002801D1082010BD95
:1094F00038480078844201DB0720F8E72046FFF770
:10950000CEFE0120A0403249096881433048016005
:109510000068002803D10120C0073049886000207E
:10952000E5E710B5024629480068002801D1082067
:1095300010BD28480078824201DB0720F8E714209C
:109540005043224C246803191E4800691C682040BF
:1095500008600020ECE710B5002819DA224A03075A
:109560001B0F083B9B089B00D2588307DC0EFF2390
:10957000A3409A438B071B0E8407E40EA3401A43B3
:10958000194B0407240F083CA408A4001A5118E042
:10959000144A03231B02D21883089B00D258830766
:1095A000DC0EFF23A3409A438B071B0E8407E40EB7
:1095B000A3401A430B4B032424021B198408A40064
:1095C0001A5110BD0005005040610040BC20002031
:1095D000B4200020B9200020B82000200063004003
:1095E00080E200E000E100E01CED00E004460D46F2
:1095F00016467F223146094800F078F800210748D6
:109600006030C17706490D8006480460084600882E
:109610000448006872B600BFFEE70000C0260020C4
:10962000C0200020C4200020F8B5042A2CD38307D2
:1096300012D00B78491C0370401C521E83070BD0BC
:109640000B78491C0370401C521E830704D00B7812
:10965000491C0370401C521E8B079B0F05D0C91A72
:10966000DF002023DE1B08C90AE0FCF77DFDF8BD02
:109670001D4608C9FD401C46B4402C4310C0121FB3
:10968000042AF5D2F308C91A521EF0D40B78491CEB
:109690000370401C521EEAD40B78491C0370401C16
:1096A000012AE4D409780170F8BD01E004C0091F63
:1096B0000429FBD28B0701D50280801CC90700D08A
:1096C0000270704700290BD0C30702D00270401C03
:1096D000491E022904D3830702D50280801C891EFB
:1096E000E3E70022EEE70022DFE70000F8B50746D7
:1096F0000B4639461943890713D1164CE601042A53
:109700000FD302CB0D1B8D43354202D102C0121F75
:10971000F5E7CBB20370401C521E002B13D0090A90
:10972000F7E7002A14D01978521E5B1C0170401C08
:10973000002908D0002A0BD01978521E5B1C01703A
:10974000401C0029EDD1002A02D01146FFF7C9FFC5
:109750003846F8BD01010101002203098B422CD3D8
:10976000030A8B4211D300239C464EE003460B4371
:109770003CD4002243088B4231D303098B421CD3D3
:10978000030A8B4201D394463FE0C3098B4201D3C5
:10979000CB01C01A524183098B4201D38B01C01AFD
:1097A000524143098B4201D34B01C01A5241030974
:1097B0008B4201D30B01C01A5241C3088B4201D323
:1097C000CB00C01A524183088B4201D38B00C01AD0
:1097D000524143088B4201D34B00C01A5241411AF7
:1097E00000D201465241104670475DE0CA0F00D0DA
:1097F0004942031000D34042534000229C460309D3
:109800008B422DD3030A8B4212D3FC22890112BA58
:10981000030A8B420CD3890192118B4208D3890130
:1098200092118B4204D389013AD0921100E0890948
:10983000C3098B4201D3CB01C01A524183098B4229
:1098400001D38B01C01A524143098B4201D34B0112
:10985000C01A524103098B4201D30B01C01A524175
:10986000C3088B4201D3CB00C01A524183088B42FC
:1098700001D38B00C01A5241D9D243088B4201D385
:109880004B00C01A5241411A00D201466346524170
:109890005B10104601D34042002B00D5494270476F
:1098A00063465B1000D3404201B50020C046C0466D
:1098B00002BD704770477047754600F023F8AE460A
:1098C000050069465346C008C000854618B020B55B
:1098D000FCF77AFC60BC00274908B6460026C0C5E4
:1098E000C0C5C0C5C0C5C0C5C0C5C0C5C0C5403D58
:1098F00049008D4670470446C046C0462046FCF7E6
:109900001DFC000000487047402700200149182036
:10991000ABBEFEE726000200704730B47446641EFA
:109920002578641CAB4204D3635D5B00E31830BC54
:1099300018471D46F8E70000021801000F18010043
:109940000A180100010001005899010000200020C0
:10995000C8000000046101000024F40000000000C1
:109960000000FFFF100000000300000000000000E6
:1099700000000000000000000000000000000000E7
:1099800000000000000000000000000000000000D7
:1099900000000000000000000000000000000000C7
:1099A00000000000000000000000000000000000B7
:1099B00000000000000000000000000000000000A7
:1099C0000000000000000000000000000000000097
:1099D0000000000000000000000000000000000087
:1099E0000000000000000000000000000000000077
:1099F0000000000000000000000000000000000067
:109A00000000000000000000000000000000000056
:109A10000000000000000000000000000000000046
:04000005000160C1D5
:00000001FF
